{
  "contractName": "Vault",
  "abi": [
    {
      "inputs": [
        {
          "internalType": "uint256",
          "name": "updateInterval",
          "type": "uint256"
        }
      ],
      "stateMutability": "nonpayable",
      "type": "constructor"
    },
    {
      "inputs": [],
      "name": "counter",
      "outputs": [
        {
          "internalType": "uint256",
          "name": "",
          "type": "uint256"
        }
      ],
      "stateMutability": "view",
      "type": "function",
      "constant": true
    },
    {
      "inputs": [],
      "name": "interval",
      "outputs": [
        {
          "internalType": "uint256",
          "name": "",
          "type": "uint256"
        }
      ],
      "stateMutability": "view",
      "type": "function",
      "constant": true
    },
    {
      "inputs": [],
      "name": "lastTimeStamp",
      "outputs": [
        {
          "internalType": "uint256",
          "name": "",
          "type": "uint256"
        }
      ],
      "stateMutability": "view",
      "type": "function",
      "constant": true
    },
    {
      "inputs": [],
      "name": "owner",
      "outputs": [
        {
          "internalType": "address",
          "name": "",
          "type": "address"
        }
      ],
      "stateMutability": "view",
      "type": "function",
      "constant": true
    },
    {
      "inputs": [],
      "name": "balanceOfContract",
      "outputs": [
        {
          "internalType": "uint256",
          "name": "",
          "type": "uint256"
        }
      ],
      "stateMutability": "view",
      "type": "function",
      "constant": true
    },
    {
      "inputs": [],
      "name": "deposit",
      "outputs": [],
      "stateMutability": "payable",
      "type": "function",
      "payable": true
    },
    {
      "inputs": [
        {
          "internalType": "bytes",
          "name": "",
          "type": "bytes"
        }
      ],
      "name": "checkUpkeep",
      "outputs": [
        {
          "internalType": "bool",
          "name": "upkeepNeeded",
          "type": "bool"
        },
        {
          "internalType": "bytes",
          "name": "",
          "type": "bytes"
        }
      ],
      "stateMutability": "nonpayable",
      "type": "function"
    },
    {
      "inputs": [
        {
          "internalType": "bytes",
          "name": "",
          "type": "bytes"
        }
      ],
      "name": "performUpkeep",
      "outputs": [],
      "stateMutability": "nonpayable",
      "type": "function"
    }
  ],
  "bytecode": "0x60a060405234801561001057600080fd5b50604051610730380380610730833981810160405281019061003291906100a4565b8060808181525050336000806101000a81548173ffffffffffffffffffffffffffffffffffffffff021916908373ffffffffffffffffffffffffffffffffffffffff160217905550426002819055506000600181905550506100ee565b60008151905061009e816100d7565b92915050565b6000602082840312156100b657600080fd5b60006100c48482850161008f565b91505092915050565b6000819050919050565b6100e0816100cd565b81146100eb57600080fd5b50565b608051610619610117600039600081816101d00152818161029e01526102fb01526106196000f3fe60806040526004361061007b5760003560e01c80638da5cb5b1161004e5780638da5cb5b1461013d578063947a36fb14610168578063d0e30db014610193578063e6c7c4561461019d5761007b565b80633f3b3b27146100805780634585e33b146100ab57806361bc221a146100d45780636e04ff0d146100ff575b600080fd5b34801561008c57600080fd5b506100956101c8565b6040516100a29190610467565b60405180910390f35b3480156100b757600080fd5b506100d260048036038101906100cd9190610371565b6101ce565b005b3480156100e057600080fd5b506100e9610292565b6040516100f69190610467565b60405180910390f35b34801561010b57600080fd5b5061012660048036038101906101219190610371565b610298565b604051610134929190610437565b60405180910390f35b34801561014957600080fd5b506101526102d5565b60405161015f919061041c565b60405180910390f35b34801561017457600080fd5b5061017d6102f9565b60405161018a9190610467565b60405180910390f35b61019b61031d565b005b3480156101a957600080fd5b506101b261031f565b6040516101bf9190610467565b60405180910390f35b60025481565b7f0000000000000000000000000000000000000000000000000000000000000000600254426101fd91906104f4565b111561028e574260028190555060018054610218919061049e565b60018190555060008054906101000a900473ffffffffffffffffffffffffffffffffffffffff1673ffffffffffffffffffffffffffffffffffffffff166108fc67016345785d8a00009081150290604051600060405180830381858888f1935050505015801561028c573d6000803e3d6000fd5b505b5050565b60015481565b600060607f0000000000000000000000000000000000000000000000000000000000000000600254426102cb91906104f4565b1191509250929050565b60008054906101000a900473ffffffffffffffffffffffffffffffffffffffff1681565b7f000000000000000000000000000000000000000000000000000000000000000081565b565b600047905090565b60008083601f84011261033957600080fd5b8235905067ffffffffffffffff81111561035257600080fd5b60208301915083600182028301111561036a57600080fd5b9250929050565b6000806020838503121561038457600080fd5b600083013567ffffffffffffffff81111561039e57600080fd5b6103aa85828601610327565b92509250509250929050565b6103bf81610528565b82525050565b6103ce8161053a565b82525050565b60006103df82610482565b6103e9818561048d565b93506103f9818560208601610570565b610402816105d2565b840191505092915050565b61041681610566565b82525050565b600060208201905061043160008301846103b6565b92915050565b600060408201905061044c60008301856103c5565b818103602083015261045e81846103d4565b90509392505050565b600060208201905061047c600083018461040d565b92915050565b600081519050919050565b600082825260208201905092915050565b60006104a982610566565b91506104b483610566565b9250827fffffffffffffffffffffffffffffffffffffffffffffffffffffffffffffffff038211156104e9576104e86105a3565b5b828201905092915050565b60006104ff82610566565b915061050a83610566565b92508282101561051d5761051c6105a3565b5b828203905092915050565b600061053382610546565b9050919050565b60008115159050919050565b600073ffffffffffffffffffffffffffffffffffffffff82169050919050565b6000819050919050565b60005b8381101561058e578082015181840152602081019050610573565b8381111561059d576000848401525b50505050565b7f4e487b7100000000000000000000000000000000000000000000000000000000600052601160045260246000fd5b6000601f19601f830116905091905056fea26469706673582212201e49b289d4e8294b83928b94c15ede36a2d3a04148c4ce4c0de014386dc1d77c64736f6c63430008020033",
  "immutableReferences": {
    "78": [
      {
        "length": 32,
        "start": 464
      },
      {
        "length": 32,
        "start": 670
      },
      {
        "length": 32,
        "start": 763
      }
    ]
  },
  "source": "// SPDX-License-Identifier: MIT\npragma solidity ^0.8.2;\nimport \"@chainlink/contracts/src/v0.8/interfaces/KeeperCompatibleInterface.sol\";\n\ncontract Vault is KeeperCompatibleInterface {\n\n    address public owner;\n\n    function balanceOfContract() external view returns(uint256) {\n        return address(this).balance;\n    }\n\n    function deposit() external payable {}\n\n    uint public counter;\n\n    uint public immutable interval;\n    uint public lastTimeStamp;\n\n    constructor(uint updateInterval) {\n      interval = updateInterval;\n      owner = msg.sender;\n      lastTimeStamp = block.timestamp;\n\n      counter = 0;\n    }\n\n    function checkUpkeep(bytes calldata /* checkData */) external override returns (bool upkeepNeeded, bytes memory /* performData */) {\n        upkeepNeeded = (block.timestamp - lastTimeStamp) > interval;\n        // We don't use the checkData in this example. The checkData is defined when the Upkeep was registered.\n    }\n\n    function performUpkeep(bytes calldata /* performData */) external override {\n        //We highly recommend revalidating the upkeep in the performUpkeep function\n        if ((block.timestamp - lastTimeStamp) > interval ) {\n            lastTimeStamp = block.timestamp;\n            counter = counter + 1;\n            payable(address(owner)).transfer(0.1 ether);\n        }\n        // We don't use the performData in this example. The performData is generated by the Keeper's call to your checkUpkeep function\n    }\n}\n\n// import \"@chainlink/contracts/src/v0.7/KeeperCompatible.sol\";\n\n// contract Counter is KeeperCompatibleInterface {\n//     /**\n//     * Public counter variable\n//     */\n//     uint public counter;\n\n//     /**\n//     * Use an interval in seconds and a timestamp to slow execution of Upkeep\n//     */\n//     uint public immutable interval;\n//     uint public lastTimeStamp;\n\n//     constructor(uint updateInterval) {\n//       interval = updateInterval;\n//       lastTimeStamp = block.timestamp;\n\n//       counter = 0;\n//     }\n\n//     function checkUpkeep(bytes calldata /* checkData */) external override returns (bool upkeepNeeded, bytes memory /* performData */) {\n//         upkeepNeeded = (block.timestamp - lastTimeStamp) > interval;\n//         // We don't use the checkData in this example. The checkData is defined when the Upkeep was registered.\n//     }\n\n//     function performUpkeep(bytes calldata /* performData */) external override {\n//         //We highly recommend revalidating the upkeep in the performUpkeep function\n//         if ((block.timestamp - lastTimeStamp) > interval ) {\n//             lastTimeStamp = block.timestamp;\n//             counter = counter + 1;\n//         }\n//         // We don't use the performData in this example. The performData is generated by the Keeper's call to your checkUpkeep function\n//     }\n// }",
  "sourcePath": "/Users/viktorkuzmanov/Desktop/vault-chainlink-keepers-tutorial/src/contracts/Vault.sol",
  "compiler": {
    "name": "solc",
    "version": "0.8.2+commit.661d1103.Emscripten.clang"
  },
  "schemaVersion": "3.4.4",
  "updatedAt": "2022-02-17T20:36:09.776Z",
  "networkType": "ethereum",
  "devdoc": {
    "kind": "dev",
    "methods": {},
    "version": 1
  },
  "userdoc": {
    "kind": "user",
    "methods": {},
    "version": 1
  }
}